{
  "_format": "hh-sol-artifact-1",
  "contractName": "Purchase",
  "sourceName": "contracts/Purchase.sol",
  "abi": [
    {
      "inputs": [
        {
          "internalType": "address",
          "name": "_buyerAddress",
          "type": "address"
        }
      ],
      "stateMutability": "nonpayable",
      "type": "constructor"
    },
    {
      "anonymous": false,
      "inputs": [
        {
          "indexed": true,
          "internalType": "address",
          "name": "from",
          "type": "address"
        },
        {
          "indexed": true,
          "internalType": "address",
          "name": "to",
          "type": "address"
        },
        {
          "indexed": false,
          "internalType": "string",
          "name": "message",
          "type": "string"
        }
      ],
      "name": "InitialDeploy",
      "type": "event"
    },
    {
      "anonymous": false,
      "inputs": [
        {
          "indexed": true,
          "internalType": "address",
          "name": "from",
          "type": "address"
        },
        {
          "indexed": true,
          "internalType": "address",
          "name": "to",
          "type": "address"
        },
        {
          "indexed": false,
          "internalType": "string",
          "name": "service",
          "type": "string"
        },
        {
          "indexed": false,
          "internalType": "uint32",
          "name": "amount",
          "type": "uint32"
        },
        {
          "indexed": false,
          "internalType": "string",
          "name": "unit",
          "type": "string"
        }
      ],
      "name": "Initialize",
      "type": "event"
    },
    {
      "inputs": [],
      "name": "buyerAddress",
      "outputs": [
        {
          "internalType": "address",
          "name": "",
          "type": "address"
        }
      ],
      "stateMutability": "view",
      "type": "function"
    },
    {
      "inputs": [
        {
          "internalType": "string",
          "name": "service",
          "type": "string"
        },
        {
          "internalType": "uint32",
          "name": "amount",
          "type": "uint32"
        },
        {
          "internalType": "string",
          "name": "unit",
          "type": "string"
        }
      ],
      "name": "initiate",
      "outputs": [],
      "stateMutability": "nonpayable",
      "type": "function"
    },
    {
      "inputs": [],
      "name": "requiredService",
      "outputs": [
        {
          "internalType": "string",
          "name": "service",
          "type": "string"
        },
        {
          "internalType": "uint32",
          "name": "amount",
          "type": "uint32"
        },
        {
          "internalType": "string",
          "name": "unit",
          "type": "string"
        }
      ],
      "stateMutability": "view",
      "type": "function"
    },
    {
      "inputs": [],
      "name": "serviceProviderAddress",
      "outputs": [
        {
          "internalType": "address",
          "name": "",
          "type": "address"
        }
      ],
      "stateMutability": "view",
      "type": "function"
    },
    {
      "inputs": [],
      "name": "status",
      "outputs": [
        {
          "internalType": "enum Purchase.ProcessStatus",
          "name": "",
          "type": "uint8"
        }
      ],
      "stateMutability": "view",
      "type": "function"
    }
  ],
  "bytecode": "0x60806040526003600560006101000a81548160ff02191690836005811115610050577f4e487b7100000000000000000000000000000000000000000000000000000000600052602160045260246000fd5b021790555034801561006157600080fd5b50604051610d41380380610d41833981810160405281019061008391906101a2565b806000806101000a81548173ffffffffffffffffffffffffffffffffffffffff021916908373ffffffffffffffffffffffffffffffffffffffff16021790555033600160006101000a81548173ffffffffffffffffffffffffffffffffffffffff021916908373ffffffffffffffffffffffffffffffffffffffff16021790555060008054906101000a900473ffffffffffffffffffffffffffffffffffffffff1673ffffffffffffffffffffffffffffffffffffffff163373ffffffffffffffffffffffffffffffffffffffff167f383712b81ad405e74161f53153989f6b3f242a7f8791a8df9b11d0b8549046e460405161017f906101ee565b60405180910390a3506102b7565b60008151905061019c816102a0565b92915050565b6000602082840312156101b457600080fd5b60006101c28482850161018d565b91505092915050565b60006101d8602f8361020e565b91506101e382610251565b604082019050919050565b60006020820190508181036000830152610207816101cb565b9050919050565b600082825260208201905092915050565b600061022a82610231565b9050919050565b600073ffffffffffffffffffffffffffffffffffffffff82169050919050565b7f416e20696e7669746520746f207075726368617365207365727669636573206860008201527f6173206265656e20637265617465640000000000000000000000000000000000602082015250565b6102a98161021f565b81146102b457600080fd5b50565b610a7b806102c66000396000f3fe608060405234801561001057600080fd5b50600436106100575760003560e01c8063200d2ed21461005c57806344834aca1461007a578063832cf7d614610098578063837a7500146100b6578063a4b8fb0c146100d6575b600080fd5b6100646100f2565b604051610071919061074b565b60405180910390f35b610082610105565b60405161008f9190610730565b60405180910390f35b6100a0610129565b6040516100ad9190610730565b60405180910390f35b6100be61014f565b6040516100cd93929190610788565b60405180910390f35b6100f060048036038101906100eb919061064b565b610287565b005b600560009054906101000a900460ff1681565b60008054906101000a900473ffffffffffffffffffffffffffffffffffffffff1681565b600160009054906101000a900473ffffffffffffffffffffffffffffffffffffffff1681565b6002806000018054610160906108e8565b80601f016020809104026020016040519081016040528092919081815260200182805461018c906108e8565b80156101d95780601f106101ae576101008083540402835291602001916101d9565b820191906000526020600020905b8154815290600101906020018083116101bc57829003601f168201915b5050505050908060010160009054906101000a900463ffffffff1690806002018054610204906108e8565b80601f0160208091040260200160405190810160405280929190818152602001828054610230906108e8565b801561027d5780601f106102525761010080835404028352916020019161027d565b820191906000526020600020905b81548152906001019060200180831161026057829003601f168201915b5050505050905083565b60008054906101000a900473ffffffffffffffffffffffffffffffffffffffff1673ffffffffffffffffffffffffffffffffffffffff163373ffffffffffffffffffffffffffffffffffffffff1614600160009054906101000a900473ffffffffffffffffffffffffffffffffffffffff1673ffffffffffffffffffffffffffffffffffffffff163373ffffffffffffffffffffffffffffffffffffffff16141561034a57604051806060016040528060318152602001610a1560319139610381565b6040518060400160405280602081526020017f596f752063616e277420706572666f726d2074686973206f7065726174696f6e8152505b906103c2576040517f08c379a00000000000000000000000000000000000000000000000000000000081526004016103b99190610766565b60405180910390fd5b506001600560006101000a81548160ff0219169083600581111561040f577f4e487b7100000000000000000000000000000000000000000000000000000000600052602160045260246000fd5b021790555060405180606001604052808481526020018363ffffffff168152602001828152506002600082015181600001908051906020019061045392919061052b565b5060208201518160010160006101000a81548163ffffffff021916908363ffffffff160217905550604082015181600201908051906020019061049792919061052b565b50905050600160009054906101000a900473ffffffffffffffffffffffffffffffffffffffff1673ffffffffffffffffffffffffffffffffffffffff163373ffffffffffffffffffffffffffffffffffffffff167f86c7f34de725b467157ad4d449dfe9ad075d4f95a5a98a6902d2fd55972de8e185858560405161051e93929190610788565b60405180910390a3505050565b828054610537906108e8565b90600052602060002090601f01602090048101928261055957600085556105a0565b82601f1061057257805160ff19168380011785556105a0565b828001600101855582156105a0579182015b8281111561059f578251825591602001919060010190610584565b5b5090506105ad91906105b1565b5090565b5b808211156105ca5760008160009055506001016105b2565b5090565b60006105e16105dc846107f2565b6107cd565b9050828152602081018484840111156105f957600080fd5b6106048482856108a6565b509392505050565b600082601f83011261061d57600080fd5b813561062d8482602086016105ce565b91505092915050565b600081359050610645816109fd565b92915050565b60008060006060848603121561066057600080fd5b600084013567ffffffffffffffff81111561067a57600080fd5b6106868682870161060c565b935050602061069786828701610636565b925050604084013567ffffffffffffffff8111156106b457600080fd5b6106c08682870161060c565b9150509250925092565b6106d38161083f565b82525050565b6106e281610894565b82525050565b60006106f382610823565b6106fd818561082e565b935061070d8185602086016108b5565b610716816109d8565b840191505092915050565b61072a81610884565b82525050565b600060208201905061074560008301846106ca565b92915050565b600060208201905061076060008301846106d9565b92915050565b6000602082019050818103600083015261078081846106e8565b905092915050565b600060608201905081810360008301526107a281866106e8565b90506107b16020830185610721565b81810360408301526107c381846106e8565b9050949350505050565b60006107d76107e8565b90506107e3828261091a565b919050565b6000604051905090565b600067ffffffffffffffff82111561080d5761080c6109a9565b5b610816826109d8565b9050602081019050919050565b600081519050919050565b600082825260208201905092915050565b600061084a82610864565b9050919050565b600081905061085f826109e9565b919050565b600073ffffffffffffffffffffffffffffffffffffffff82169050919050565b600063ffffffff82169050919050565b600061089f82610851565b9050919050565b82818337600083830152505050565b60005b838110156108d35780820151818401526020810190506108b8565b838111156108e2576000848401525b50505050565b6000600282049050600182168061090057607f821691505b602082108114156109145761091361097a565b5b50919050565b610923826109d8565b810181811067ffffffffffffffff82111715610942576109416109a9565b5b80604052505050565b7f4e487b7100000000000000000000000000000000000000000000000000000000600052602160045260246000fd5b7f4e487b7100000000000000000000000000000000000000000000000000000000600052602260045260246000fd5b7f4e487b7100000000000000000000000000000000000000000000000000000000600052604160045260246000fd5b6000601f19601f8301169050919050565b600681106109fa576109f961094b565b5b50565b610a0681610884565b8114610a1157600080fd5b5056fe497420646f6573206e6f74206d616b652073656e736520746f20706572666f726d2074686174206f7065726174696f6e21a264697066735822122090a483b6784a946ebe991e2a0b8f542d62ea180be236945a759b56135bdc9ea564736f6c63430008040033",
  "linkReferences": {},
  "deployedLinkReferences": {}
}