{
  "_format": "hh-sol-artifact-1",
  "contractName": "Purchase",
  "sourceName": "contracts/Purchase.sol",
  "abi": [
    {
      "inputs": [
        {
          "internalType": "address",
          "name": "_buyerAddress",
          "type": "address"
        }
      ],
      "stateMutability": "nonpayable",
      "type": "constructor"
    },
    {
      "inputs": [],
      "name": "buyerAddress",
      "outputs": [
        {
          "internalType": "address",
          "name": "",
          "type": "address"
        }
      ],
      "stateMutability": "view",
      "type": "function"
    },
    {
      "inputs": [
        {
          "internalType": "string",
          "name": "service",
          "type": "string"
        },
        {
          "internalType": "uint256",
          "name": "amount",
          "type": "uint256"
        },
        {
          "internalType": "string",
          "name": "unit",
          "type": "string"
        }
      ],
      "name": "initiate",
      "outputs": [],
      "stateMutability": "nonpayable",
      "type": "function"
    },
    {
      "inputs": [],
      "name": "requiredService",
      "outputs": [
        {
          "internalType": "string",
          "name": "service",
          "type": "string"
        },
        {
          "internalType": "uint256",
          "name": "amount",
          "type": "uint256"
        },
        {
          "internalType": "string",
          "name": "unit",
          "type": "string"
        }
      ],
      "stateMutability": "view",
      "type": "function"
    },
    {
      "inputs": [],
      "name": "serviceProviderAddress",
      "outputs": [
        {
          "internalType": "address",
          "name": "",
          "type": "address"
        }
      ],
      "stateMutability": "view",
      "type": "function"
    },
    {
      "inputs": [],
      "name": "status",
      "outputs": [
        {
          "internalType": "string",
          "name": "",
          "type": "string"
        }
      ],
      "stateMutability": "view",
      "type": "function"
    }
  ],
  "bytecode": "0x60806040523480156200001157600080fd5b5060405162000b4b38038062000b4b8339818101604052810190620000379190620001d4565b806000806101000a81548173ffffffffffffffffffffffffffffffffffffffff021916908373ffffffffffffffffffffffffffffffffffffffff16021790555033600160006101000a81548173ffffffffffffffffffffffffffffffffffffffff021916908373ffffffffffffffffffffffffffffffffffffffff1602179055506040518060400160405280600881526020017f6465706c6f79656400000000000000000000000000000000000000000000000081525060029080519060200190620001059291906200010d565b5050620002b3565b8280546200011b9062000234565b90600052602060002090601f0160209004810192826200013f57600085556200018b565b82601f106200015a57805160ff19168380011785556200018b565b828001600101855582156200018b579182015b828111156200018a5782518255916020019190600101906200016d565b5b5090506200019a91906200019e565b5090565b5b80821115620001b95760008160009055506001016200019f565b5090565b600081519050620001ce8162000299565b92915050565b600060208284031215620001e757600080fd5b6000620001f784828501620001bd565b91505092915050565b60006200020d8262000214565b9050919050565b600073ffffffffffffffffffffffffffffffffffffffff82169050919050565b600060028204905060018216806200024d57607f821691505b602082108114156200026457620002636200026a565b5b50919050565b7f4e487b7100000000000000000000000000000000000000000000000000000000600052602260045260246000fd5b620002a48162000200565b8114620002b057600080fd5b50565b61088880620002c36000396000f3fe608060405234801561001057600080fd5b50600436106100575760003560e01c8063200d2ed21461005c57806344834aca1461007a578063832cf7d614610098578063837a7500146100b6578063aef8f192146100d6575b600080fd5b6100646100f2565b6040516100719190610612565b60405180910390f35b610082610180565b60405161008f91906105f7565b60405180910390f35b6100a06101a4565b6040516100ad91906105f7565b60405180910390f35b6100be6101ca565b6040516100cd93929190610634565b60405180910390f35b6100f060048036038101906100eb9190610521565b6102f2565b005b600280546100ff90610769565b80601f016020809104026020016040519081016040528092919081815260200182805461012b90610769565b80156101785780601f1061014d57610100808354040283529160200191610178565b820191906000526020600020905b81548152906001019060200180831161015b57829003601f168201915b505050505081565b60008054906101000a900473ffffffffffffffffffffffffffffffffffffffff1681565b600160009054906101000a900473ffffffffffffffffffffffffffffffffffffffff1681565b60038060000180546101db90610769565b80601f016020809104026020016040519081016040528092919081815260200182805461020790610769565b80156102545780601f1061022957610100808354040283529160200191610254565b820191906000526020600020905b81548152906001019060200180831161023757829003601f168201915b50505050509080600101549080600201805461026f90610769565b80601f016020809104026020016040519081016040528092919081815260200182805461029b90610769565b80156102e85780601f106102bd576101008083540402835291602001916102e8565b820191906000526020600020905b8154815290600101906020018083116102cb57829003601f168201915b5050505050905083565b60008054906101000a900473ffffffffffffffffffffffffffffffffffffffff1673ffffffffffffffffffffffffffffffffffffffff163373ffffffffffffffffffffffffffffffffffffffff1614156103fb576040518060400160405280600981526020017f696e69746961746564000000000000000000000000000000000000000000000081525060029080519060200190610391929190610401565b50604051806060016040528084815260200183815260200182815250600360008201518160000190805190602001906103cb929190610401565b506020820151816001015560408201518160020190805190602001906103f2929190610401565b509050506103fc565b5b505050565b82805461040d90610769565b90600052602060002090601f01602090048101928261042f5760008555610476565b82601f1061044857805160ff1916838001178555610476565b82800160010185558215610476579182015b8281111561047557825182559160200191906001019061045a565b5b5090506104839190610487565b5090565b5b808211156104a0576000816000905550600101610488565b5090565b60006104b76104b28461069e565b610679565b9050828152602081018484840111156104cf57600080fd5b6104da848285610727565b509392505050565b600082601f8301126104f357600080fd5b81356105038482602086016104a4565b91505092915050565b60008135905061051b8161083b565b92915050565b60008060006060848603121561053657600080fd5b600084013567ffffffffffffffff81111561055057600080fd5b61055c868287016104e2565b935050602061056d8682870161050c565b925050604084013567ffffffffffffffff81111561058a57600080fd5b610596868287016104e2565b9150509250925092565b6105a9816106eb565b82525050565b60006105ba826106cf565b6105c481856106da565b93506105d4818560208601610736565b6105dd8161082a565b840191505092915050565b6105f18161071d565b82525050565b600060208201905061060c60008301846105a0565b92915050565b6000602082019050818103600083015261062c81846105af565b905092915050565b6000606082019050818103600083015261064e81866105af565b905061065d60208301856105e8565b818103604083015261066f81846105af565b9050949350505050565b6000610683610694565b905061068f828261079b565b919050565b6000604051905090565b600067ffffffffffffffff8211156106b9576106b86107fb565b5b6106c28261082a565b9050602081019050919050565b600081519050919050565b600082825260208201905092915050565b60006106f6826106fd565b9050919050565b600073ffffffffffffffffffffffffffffffffffffffff82169050919050565b6000819050919050565b82818337600083830152505050565b60005b83811015610754578082015181840152602081019050610739565b83811115610763576000848401525b50505050565b6000600282049050600182168061078157607f821691505b60208210811415610795576107946107cc565b5b50919050565b6107a48261082a565b810181811067ffffffffffffffff821117156107c3576107c26107fb565b5b80604052505050565b7f4e487b7100000000000000000000000000000000000000000000000000000000600052602260045260246000fd5b7f4e487b7100000000000000000000000000000000000000000000000000000000600052604160045260246000fd5b6000601f19601f8301169050919050565b6108448161071d565b811461084f57600080fd5b5056fea26469706673582212200a61bccf9c362c3b1db1c4dbbed4d31581418df900ae864b29f50ce33ee8944064736f6c63430008040033",
  "linkReferences": {},
  "deployedLinkReferences": {}
}