{
  "_format": "hh-sol-artifact-1",
  "contractName": "Purchase",
  "sourceName": "contracts/Purchase.sol",
  "abi": [
    {
      "inputs": [
        {
          "internalType": "address",
          "name": "_buyerAddress",
          "type": "address"
        }
      ],
      "stateMutability": "nonpayable",
      "type": "constructor"
    },
    {
      "anonymous": false,
      "inputs": [
        {
          "indexed": true,
          "internalType": "address",
          "name": "from",
          "type": "address"
        },
        {
          "indexed": false,
          "internalType": "string",
          "name": "service",
          "type": "string"
        },
        {
          "indexed": false,
          "internalType": "uint32",
          "name": "amount",
          "type": "uint32"
        },
        {
          "indexed": false,
          "internalType": "string",
          "name": "unit",
          "type": "string"
        }
      ],
      "name": "Initialize",
      "type": "event"
    },
    {
      "inputs": [],
      "name": "buyerAddress",
      "outputs": [
        {
          "internalType": "address",
          "name": "",
          "type": "address"
        }
      ],
      "stateMutability": "view",
      "type": "function"
    },
    {
      "inputs": [
        {
          "internalType": "string",
          "name": "service",
          "type": "string"
        },
        {
          "internalType": "uint32",
          "name": "amount",
          "type": "uint32"
        },
        {
          "internalType": "string",
          "name": "unit",
          "type": "string"
        }
      ],
      "name": "initiate",
      "outputs": [],
      "stateMutability": "nonpayable",
      "type": "function"
    },
    {
      "inputs": [],
      "name": "requiredService",
      "outputs": [
        {
          "internalType": "string",
          "name": "service",
          "type": "string"
        },
        {
          "internalType": "uint32",
          "name": "amount",
          "type": "uint32"
        },
        {
          "internalType": "string",
          "name": "unit",
          "type": "string"
        }
      ],
      "stateMutability": "view",
      "type": "function"
    },
    {
      "inputs": [],
      "name": "serviceProviderAddress",
      "outputs": [
        {
          "internalType": "address",
          "name": "",
          "type": "address"
        }
      ],
      "stateMutability": "view",
      "type": "function"
    },
    {
      "inputs": [],
      "name": "status",
      "outputs": [
        {
          "internalType": "enum Purchase.ProcessStatus",
          "name": "",
          "type": "uint8"
        }
      ],
      "stateMutability": "view",
      "type": "function"
    }
  ],
  "bytecode": "0x60806040526003600560006101000a81548160ff02191690836005811115610050577f4e487b7100000000000000000000000000000000000000000000000000000000600052602160045260246000fd5b021790555034801561006157600080fd5b50604051610be2380380610be28339818101604052810190610083919061011f565b806000806101000a81548173ffffffffffffffffffffffffffffffffffffffff021916908373ffffffffffffffffffffffffffffffffffffffff16021790555033600160006101000a81548173ffffffffffffffffffffffffffffffffffffffff021916908373ffffffffffffffffffffffffffffffffffffffff16021790555050610191565b6000815190506101198161017a565b92915050565b60006020828403121561013157600080fd5b600061013f8482850161010a565b91505092915050565b60006101538261015a565b9050919050565b600073ffffffffffffffffffffffffffffffffffffffff82169050919050565b61018381610148565b811461018e57600080fd5b50565b610a42806101a06000396000f3fe608060405234801561001057600080fd5b50600436106100575760003560e01c8063200d2ed21461005c57806344834aca1461007a578063832cf7d614610098578063837a7500146100b6578063a4b8fb0c146100d6575b600080fd5b6100646100f2565b6040516100719190610712565b60405180910390f35b610082610105565b60405161008f91906106f7565b60405180910390f35b6100a0610129565b6040516100ad91906106f7565b60405180910390f35b6100be61014f565b6040516100cd9392919061074f565b60405180910390f35b6100f060048036038101906100eb9190610612565b610287565b005b600560009054906101000a900460ff1681565b60008054906101000a900473ffffffffffffffffffffffffffffffffffffffff1681565b600160009054906101000a900473ffffffffffffffffffffffffffffffffffffffff1681565b6002806000018054610160906108af565b80601f016020809104026020016040519081016040528092919081815260200182805461018c906108af565b80156101d95780601f106101ae576101008083540402835291602001916101d9565b820191906000526020600020905b8154815290600101906020018083116101bc57829003601f168201915b5050505050908060010160009054906101000a900463ffffffff1690806002018054610204906108af565b80601f0160208091040260200160405190810160405280929190818152602001828054610230906108af565b801561027d5780601f106102525761010080835404028352916020019161027d565b820191906000526020600020905b81548152906001019060200180831161026057829003601f168201915b5050505050905083565b60008054906101000a900473ffffffffffffffffffffffffffffffffffffffff1673ffffffffffffffffffffffffffffffffffffffff163373ffffffffffffffffffffffffffffffffffffffff1614600160009054906101000a900473ffffffffffffffffffffffffffffffffffffffff1673ffffffffffffffffffffffffffffffffffffffff163373ffffffffffffffffffffffffffffffffffffffff16141561034a576040518060600160405280603181526020016109dc60319139610381565b6040518060400160405280602081526020017f596f752063616e277420706572666f726d2074686973206f7065726174696f6e8152505b906103c2576040517f08c379a00000000000000000000000000000000000000000000000000000000081526004016103b9919061072d565b60405180910390fd5b506001600560006101000a81548160ff0219169083600581111561040f577f4e487b7100000000000000000000000000000000000000000000000000000000600052602160045260246000fd5b021790555060405180606001604052808481526020018363ffffffff16815260200182815250600260008201518160000190805190602001906104539291906104f2565b5060208201518160010160006101000a81548163ffffffff021916908363ffffffff16021790555060408201518160020190805190602001906104979291906104f2565b509050503373ffffffffffffffffffffffffffffffffffffffff167fcc023edbf7c5a7e4efae2cdb16dc2e959d81ffded5f926180de76f1e5d2bddf98484846040516104e59392919061074f565b60405180910390a2505050565b8280546104fe906108af565b90600052602060002090601f0160209004810192826105205760008555610567565b82601f1061053957805160ff1916838001178555610567565b82800160010185558215610567579182015b8281111561056657825182559160200191906001019061054b565b5b5090506105749190610578565b5090565b5b80821115610591576000816000905550600101610579565b5090565b60006105a86105a3846107b9565b610794565b9050828152602081018484840111156105c057600080fd5b6105cb84828561086d565b509392505050565b600082601f8301126105e457600080fd5b81356105f4848260208601610595565b91505092915050565b60008135905061060c816109c4565b92915050565b60008060006060848603121561062757600080fd5b600084013567ffffffffffffffff81111561064157600080fd5b61064d868287016105d3565b935050602061065e868287016105fd565b925050604084013567ffffffffffffffff81111561067b57600080fd5b610687868287016105d3565b9150509250925092565b61069a81610806565b82525050565b6106a98161085b565b82525050565b60006106ba826107ea565b6106c481856107f5565b93506106d481856020860161087c565b6106dd8161099f565b840191505092915050565b6106f18161084b565b82525050565b600060208201905061070c6000830184610691565b92915050565b600060208201905061072760008301846106a0565b92915050565b6000602082019050818103600083015261074781846106af565b905092915050565b6000606082019050818103600083015261076981866106af565b905061077860208301856106e8565b818103604083015261078a81846106af565b9050949350505050565b600061079e6107af565b90506107aa82826108e1565b919050565b6000604051905090565b600067ffffffffffffffff8211156107d4576107d3610970565b5b6107dd8261099f565b9050602081019050919050565b600081519050919050565b600082825260208201905092915050565b60006108118261082b565b9050919050565b6000819050610826826109b0565b919050565b600073ffffffffffffffffffffffffffffffffffffffff82169050919050565b600063ffffffff82169050919050565b600061086682610818565b9050919050565b82818337600083830152505050565b60005b8381101561089a57808201518184015260208101905061087f565b838111156108a9576000848401525b50505050565b600060028204905060018216806108c757607f821691505b602082108114156108db576108da610941565b5b50919050565b6108ea8261099f565b810181811067ffffffffffffffff8211171561090957610908610970565b5b80604052505050565b7f4e487b7100000000000000000000000000000000000000000000000000000000600052602160045260246000fd5b7f4e487b7100000000000000000000000000000000000000000000000000000000600052602260045260246000fd5b7f4e487b7100000000000000000000000000000000000000000000000000000000600052604160045260246000fd5b6000601f19601f8301169050919050565b600681106109c1576109c0610912565b5b50565b6109cd8161084b565b81146109d857600080fd5b5056fe497420646f6573206e6f74206d616b652073656e736520746f20706572666f726d2074686174206f7065726174696f6e21a26469706673582212203c713a89cd623e5a0d1bc50f70da3f7a0db7be81ce4ef71cb2677a4f477e937b64736f6c63430008040033",
  "linkReferences": {},
  "deployedLinkReferences": {}
}