{
  "_format": "hh-sol-artifact-1",
  "contractName": "Purchase",
  "sourceName": "contracts/Purchase.sol",
  "abi": [
    {
      "inputs": [
        {
          "internalType": "address",
          "name": "_buyerAddress",
          "type": "address"
        }
      ],
      "stateMutability": "nonpayable",
      "type": "constructor"
    },
    {
      "inputs": [],
      "name": "buyerAddress",
      "outputs": [
        {
          "internalType": "address",
          "name": "",
          "type": "address"
        }
      ],
      "stateMutability": "view",
      "type": "function"
    },
    {
      "inputs": [
        {
          "internalType": "string",
          "name": "service",
          "type": "string"
        },
        {
          "internalType": "uint256",
          "name": "amount",
          "type": "uint256"
        },
        {
          "internalType": "string",
          "name": "unit",
          "type": "string"
        }
      ],
      "name": "initiate",
      "outputs": [],
      "stateMutability": "nonpayable",
      "type": "function"
    },
    {
      "inputs": [],
      "name": "requiredService",
      "outputs": [
        {
          "internalType": "string",
          "name": "service",
          "type": "string"
        },
        {
          "internalType": "uint256",
          "name": "amount",
          "type": "uint256"
        },
        {
          "internalType": "string",
          "name": "unit",
          "type": "string"
        }
      ],
      "stateMutability": "view",
      "type": "function"
    },
    {
      "inputs": [],
      "name": "serviceProviderAddress",
      "outputs": [
        {
          "internalType": "address",
          "name": "",
          "type": "address"
        }
      ],
      "stateMutability": "view",
      "type": "function"
    },
    {
      "inputs": [],
      "name": "status",
      "outputs": [
        {
          "internalType": "string",
          "name": "",
          "type": "string"
        }
      ],
      "stateMutability": "view",
      "type": "function"
    }
  ],
  "bytecode": "0x60806040523480156200001157600080fd5b5060405162000beb38038062000beb8339818101604052810190620000379190620001d4565b806000806101000a81548173ffffffffffffffffffffffffffffffffffffffff021916908373ffffffffffffffffffffffffffffffffffffffff16021790555033600160006101000a81548173ffffffffffffffffffffffffffffffffffffffff021916908373ffffffffffffffffffffffffffffffffffffffff1602179055506040518060400160405280600881526020017f6465706c6f79656400000000000000000000000000000000000000000000000081525060029080519060200190620001059291906200010d565b5050620002b3565b8280546200011b9062000234565b90600052602060002090601f0160209004810192826200013f57600085556200018b565b82601f106200015a57805160ff19168380011785556200018b565b828001600101855582156200018b579182015b828111156200018a5782518255916020019190600101906200016d565b5b5090506200019a91906200019e565b5090565b5b80821115620001b95760008160009055506001016200019f565b5090565b600081519050620001ce8162000299565b92915050565b600060208284031215620001e757600080fd5b6000620001f784828501620001bd565b91505092915050565b60006200020d8262000214565b9050919050565b600073ffffffffffffffffffffffffffffffffffffffff82169050919050565b600060028204905060018216806200024d57607f821691505b602082108114156200026457620002636200026a565b5b50919050565b7f4e487b7100000000000000000000000000000000000000000000000000000000600052602260045260246000fd5b620002a48162000200565b8114620002b057600080fd5b50565b61092880620002c36000396000f3fe608060405234801561001057600080fd5b50600436106100575760003560e01c8063200d2ed21461005c57806344834aca1461007a578063832cf7d614610098578063837a7500146100b6578063aef8f192146100d6575b600080fd5b6100646100f2565b6040516100719190610669565b60405180910390f35b610082610180565b60405161008f919061064e565b60405180910390f35b6100a06101a4565b6040516100ad919061064e565b60405180910390f35b6100be6101ca565b6040516100cd9392919061068b565b60405180910390f35b6100f060048036038101906100eb9190610555565b6102f2565b005b600280546100ff906107e0565b80601f016020809104026020016040519081016040528092919081815260200182805461012b906107e0565b80156101785780601f1061014d57610100808354040283529160200191610178565b820191906000526020600020905b81548152906001019060200180831161015b57829003601f168201915b505050505081565b60008054906101000a900473ffffffffffffffffffffffffffffffffffffffff1681565b600160009054906101000a900473ffffffffffffffffffffffffffffffffffffffff1681565b60038060000180546101db906107e0565b80601f0160208091040260200160405190810160405280929190818152602001828054610207906107e0565b80156102545780601f1061022957610100808354040283529160200191610254565b820191906000526020600020905b81548152906001019060200180831161023757829003601f168201915b50505050509080600101549080600201805461026f906107e0565b80601f016020809104026020016040519081016040528092919081815260200182805461029b906107e0565b80156102e85780601f106102bd576101008083540402835291602001916102e8565b820191906000526020600020905b8154815290600101906020018083116102cb57829003601f168201915b5050505050905083565b60008054906101000a900473ffffffffffffffffffffffffffffffffffffffff1673ffffffffffffffffffffffffffffffffffffffff163373ffffffffffffffffffffffffffffffffffffffff1614610380576040517f08c379a0000000000000000000000000000000000000000000000000000000008152600401610377906106d0565b60405180910390fd5b6040518060400160405280600981526020017f696e697469617465640000000000000000000000000000000000000000000000815250600290805190602001906103cb929190610435565b5060405180606001604052808481526020018381526020018281525060036000820151816000019080519060200190610405929190610435565b5060208201518160010155604082015181600201908051906020019061042c929190610435565b50905050505050565b828054610441906107e0565b90600052602060002090601f01602090048101928261046357600085556104aa565b82601f1061047c57805160ff19168380011785556104aa565b828001600101855582156104aa579182015b828111156104a957825182559160200191906001019061048e565b5b5090506104b791906104bb565b5090565b5b808211156104d45760008160009055506001016104bc565b5090565b60006104eb6104e684610715565b6106f0565b90508281526020810184848401111561050357600080fd5b61050e84828561079e565b509392505050565b600082601f83011261052757600080fd5b81356105378482602086016104d8565b91505092915050565b60008135905061054f816108db565b92915050565b60008060006060848603121561056a57600080fd5b600084013567ffffffffffffffff81111561058457600080fd5b61059086828701610516565b93505060206105a186828701610540565b925050604084013567ffffffffffffffff8111156105be57600080fd5b6105ca86828701610516565b9150509250925092565b6105dd81610762565b82525050565b60006105ee82610746565b6105f88185610751565b93506106088185602086016107ad565b610611816108a1565b840191505092915050565b6000610629600f83610751565b9150610634826108b2565b602082019050919050565b61064881610794565b82525050565b600060208201905061066360008301846105d4565b92915050565b6000602082019050818103600083015261068381846105e3565b905092915050565b600060608201905081810360008301526106a581866105e3565b90506106b4602083018561063f565b81810360408301526106c681846105e3565b9050949350505050565b600060208201905081810360008301526106e98161061c565b9050919050565b60006106fa61070b565b90506107068282610812565b919050565b6000604051905090565b600067ffffffffffffffff8211156107305761072f610872565b5b610739826108a1565b9050602081019050919050565b600081519050919050565b600082825260208201905092915050565b600061076d82610774565b9050919050565b600073ffffffffffffffffffffffffffffffffffffffff82169050919050565b6000819050919050565b82818337600083830152505050565b60005b838110156107cb5780820151818401526020810190506107b0565b838111156107da576000848401525b50505050565b600060028204905060018216806107f857607f821691505b6020821081141561080c5761080b610843565b5b50919050565b61081b826108a1565b810181811067ffffffffffffffff8211171561083a57610839610872565b5b80604052505050565b7f4e487b7100000000000000000000000000000000000000000000000000000000600052602260045260246000fd5b7f4e487b7100000000000000000000000000000000000000000000000000000000600052604160045260246000fd5b6000601f19601f8301169050919050565b7f4f6e6c7920546865204275796572210000000000000000000000000000000000600082015250565b6108e481610794565b81146108ef57600080fd5b5056fea2646970667358221220ea04002843e21699e3a1c5a0eb0960c692bc8f586574c52716572d9ccaaa6b0364736f6c63430008040033",
  "linkReferences": {},
  "deployedLinkReferences": {}
}