{
  "_format": "hh-sol-artifact-1",
  "contractName": "Purchase",
  "sourceName": "contracts/Purchase.sol",
  "abi": [
    {
      "inputs": [
        {
          "internalType": "address",
          "name": "_buyerAddress",
          "type": "address"
        }
      ],
      "stateMutability": "nonpayable",
      "type": "constructor"
    },
    {
      "inputs": [],
      "name": "buyerAddress",
      "outputs": [
        {
          "internalType": "address",
          "name": "",
          "type": "address"
        }
      ],
      "stateMutability": "view",
      "type": "function"
    },
    {
      "inputs": [],
      "name": "initiate",
      "outputs": [
        {
          "internalType": "string",
          "name": "",
          "type": "string"
        }
      ],
      "stateMutability": "nonpayable",
      "type": "function"
    },
    {
      "inputs": [],
      "name": "serviceProviderAddress",
      "outputs": [
        {
          "internalType": "address",
          "name": "",
          "type": "address"
        }
      ],
      "stateMutability": "view",
      "type": "function"
    },
    {
      "inputs": [],
      "name": "status",
      "outputs": [
        {
          "internalType": "string",
          "name": "",
          "type": "string"
        }
      ],
      "stateMutability": "view",
      "type": "function"
    }
  ],
  "bytecode": "0x608060405234801561001057600080fd5b5060405161061f38038061061f833981810160405281019061003291906100ce565b806000806101000a81548173ffffffffffffffffffffffffffffffffffffffff021916908373ffffffffffffffffffffffffffffffffffffffff16021790555033600160006101000a81548173ffffffffffffffffffffffffffffffffffffffff021916908373ffffffffffffffffffffffffffffffffffffffff16021790555050610140565b6000815190506100c881610129565b92915050565b6000602082840312156100e057600080fd5b60006100ee848285016100b9565b91505092915050565b600061010282610109565b9050919050565b600073ffffffffffffffffffffffffffffffffffffffff82169050919050565b610132816100f7565b811461013d57600080fd5b50565b6104d08061014f6000396000f3fe608060405234801561001057600080fd5b506004361061004c5760003560e01c8063200d2ed21461005157806344834aca1461006f57806366aa56c51461008d578063832cf7d6146100ab575b600080fd5b6100596100c9565b6040516100669190610385565b60405180910390f35b610077610157565b604051610084919061036a565b60405180910390f35b61009561017b565b6040516100a29190610385565b60405180910390f35b6100b3610259565b6040516100c0919061036a565b60405180910390f35b600280546100d690610428565b80601f016020809104026020016040519081016040528092919081815260200182805461010290610428565b801561014f5780601f106101245761010080835404028352916020019161014f565b820191906000526020600020905b81548152906001019060200180831161013257829003601f168201915b505050505081565b60008054906101000a900473ffffffffffffffffffffffffffffffffffffffff1681565b60606040518060400160405280600981526020017f696e697469617465640000000000000000000000000000000000000000000000815250600290805190602001906101c892919061027f565b50600280546101d690610428565b80601f016020809104026020016040519081016040528092919081815260200182805461020290610428565b801561024f5780601f106102245761010080835404028352916020019161024f565b820191906000526020600020905b81548152906001019060200180831161023257829003601f168201915b5050505050905090565b600160009054906101000a900473ffffffffffffffffffffffffffffffffffffffff1681565b82805461028b90610428565b90600052602060002090601f0160209004810192826102ad57600085556102f4565b82601f106102c657805160ff19168380011785556102f4565b828001600101855582156102f4579182015b828111156102f35782518255916020019190600101906102d8565b5b5090506103019190610305565b5090565b5b8082111561031e576000816000905550600101610306565b5090565b61032b816103c3565b82525050565b600061033c826103a7565b61034681856103b2565b93506103568185602086016103f5565b61035f81610489565b840191505092915050565b600060208201905061037f6000830184610322565b92915050565b6000602082019050818103600083015261039f8184610331565b905092915050565b600081519050919050565b600082825260208201905092915050565b60006103ce826103d5565b9050919050565b600073ffffffffffffffffffffffffffffffffffffffff82169050919050565b60005b838110156104135780820151818401526020810190506103f8565b83811115610422576000848401525b50505050565b6000600282049050600182168061044057607f821691505b602082108114156104545761045361045a565b5b50919050565b7f4e487b7100000000000000000000000000000000000000000000000000000000600052602260045260246000fd5b6000601f19601f830116905091905056fea26469706673582212204ac2e3916d0d846e685d489eebd2ec043aa28d4411208669a9cb3f6f92e82d9464736f6c63430008040033",
  "linkReferences": {},
  "deployedLinkReferences": {}
}